{
  "_format": "hh-sol-artifact-1",
  "contractName": "CertifyToken",
  "sourceName": "contracts/Contract.sol",
  "abi": [
    {
      "inputs": [],
      "stateMutability": "nonpayable",
      "type": "constructor"
    },
    {
      "anonymous": false,
      "inputs": [
        {
          "indexed": true,
          "internalType": "address",
          "name": "owner",
          "type": "address"
        },
        {
          "indexed": true,
          "internalType": "address",
          "name": "approved",
          "type": "address"
        },
        {
          "indexed": true,
          "internalType": "uint256",
          "name": "tokenId",
          "type": "uint256"
        }
      ],
      "name": "Approval",
      "type": "event"
    },
    {
      "anonymous": false,
      "inputs": [
        {
          "indexed": true,
          "internalType": "address",
          "name": "owner",
          "type": "address"
        },
        {
          "indexed": true,
          "internalType": "address",
          "name": "operator",
          "type": "address"
        },
        {
          "indexed": false,
          "internalType": "bool",
          "name": "approved",
          "type": "bool"
        }
      ],
      "name": "ApprovalForAll",
      "type": "event"
    },
    {
      "anonymous": false,
      "inputs": [
        {
          "indexed": true,
          "internalType": "address",
          "name": "previousOwner",
          "type": "address"
        },
        {
          "indexed": true,
          "internalType": "address",
          "name": "newOwner",
          "type": "address"
        }
      ],
      "name": "OwnershipTransferred",
      "type": "event"
    },
    {
      "anonymous": false,
      "inputs": [
        {
          "indexed": true,
          "internalType": "address",
          "name": "from",
          "type": "address"
        },
        {
          "indexed": true,
          "internalType": "address",
          "name": "to",
          "type": "address"
        },
        {
          "indexed": true,
          "internalType": "uint256",
          "name": "tokenId",
          "type": "uint256"
        }
      ],
      "name": "Transfer",
      "type": "event"
    },
    {
      "inputs": [
        {
          "internalType": "uint256",
          "name": "",
          "type": "uint256"
        }
      ],
      "name": "Courses",
      "outputs": [
        {
          "internalType": "uint256",
          "name": "courseId",
          "type": "uint256"
        },
        {
          "internalType": "address payable",
          "name": "owner",
          "type": "address"
        },
        {
          "internalType": "uint256",
          "name": "price",
          "type": "uint256"
        },
        {
          "internalType": "string",
          "name": "title",
          "type": "string"
        },
        {
          "internalType": "string",
          "name": "description",
          "type": "string"
        },
        {
          "internalType": "string",
          "name": "imageHash",
          "type": "string"
        },
        {
          "internalType": "string",
          "name": "pdfHash",
          "type": "string"
        },
        {
          "internalType": "string",
          "name": "certificateHash",
          "type": "string"
        }
      ],
      "stateMutability": "view",
      "type": "function"
    },
    {
      "inputs": [
        {
          "internalType": "address",
          "name": "to",
          "type": "address"
        },
        {
          "internalType": "uint256",
          "name": "tokenId",
          "type": "uint256"
        }
      ],
      "name": "approve",
      "outputs": [],
      "stateMutability": "nonpayable",
      "type": "function"
    },
    {
      "inputs": [
        {
          "internalType": "address",
          "name": "owner",
          "type": "address"
        }
      ],
      "name": "balanceOf",
      "outputs": [
        {
          "internalType": "uint256",
          "name": "",
          "type": "uint256"
        }
      ],
      "stateMutability": "view",
      "type": "function"
    },
    {
      "inputs": [
        {
          "internalType": "uint256",
          "name": "courseId",
          "type": "uint256"
        }
      ],
      "name": "buyCourse",
      "outputs": [],
      "stateMutability": "payable",
      "type": "function"
    },
    {
      "inputs": [
        {
          "internalType": "uint256",
          "name": "courseId",
          "type": "uint256"
        }
      ],
      "name": "checkCompleted",
      "outputs": [
        {
          "internalType": "bool",
          "name": "",
          "type": "bool"
        }
      ],
      "stateMutability": "view",
      "type": "function"
    },
    {
      "inputs": [
        {
          "internalType": "uint256",
          "name": "courseId",
          "type": "uint256"
        }
      ],
      "name": "checkEnrollment",
      "outputs": [
        {
          "internalType": "bool",
          "name": "",
          "type": "bool"
        }
      ],
      "stateMutability": "view",
      "type": "function"
    },
    {
      "inputs": [
        {
          "internalType": "uint256",
          "name": "",
          "type": "uint256"
        },
        {
          "internalType": "address",
          "name": "",
          "type": "address"
        }
      ],
      "name": "completed",
      "outputs": [
        {
          "internalType": "bool",
          "name": "",
          "type": "bool"
        }
      ],
      "stateMutability": "view",
      "type": "function"
    },
    {
      "inputs": [
        {
          "internalType": "uint256",
          "name": "courseId",
          "type": "uint256"
        },
        {
          "internalType": "uint256",
          "name": "score",
          "type": "uint256"
        },
        {
          "internalType": "string",
          "name": "tokenURI",
          "type": "string"
        }
      ],
      "name": "completedCourse",
      "outputs": [
        {
          "internalType": "bool",
          "name": "",
          "type": "bool"
        }
      ],
      "stateMutability": "nonpayable",
      "type": "function"
    },
    {
      "inputs": [
        {
          "internalType": "uint256",
          "name": "courseId",
          "type": "uint256"
        },
        {
          "internalType": "string",
          "name": "tokenURI",
          "type": "string"
        },
        {
          "internalType": "address",
          "name": "receiver",
          "type": "address"
        }
      ],
      "name": "createCertificate",
      "outputs": [
        {
          "internalType": "uint256",
          "name": "",
          "type": "uint256"
        }
      ],
      "stateMutability": "nonpayable",
      "type": "function"
    },
    {
      "inputs": [
        {
          "internalType": "uint256",
          "name": "price",
          "type": "uint256"
        },
        {
          "internalType": "string",
          "name": "title",
          "type": "string"
        },
        {
          "internalType": "string",
          "name": "description",
          "type": "string"
        },
        {
          "internalType": "string",
          "name": "imageHash",
          "type": "string"
        },
        {
          "internalType": "string",
          "name": "pdfHash",
          "type": "string"
        },
        {
          "internalType": "string",
          "name": "certificateHash",
          "type": "string"
        }
      ],
      "name": "createCourse",
      "outputs": [],
      "stateMutability": "nonpayable",
      "type": "function"
    },
    {
      "inputs": [
        {
          "internalType": "uint256",
          "name": "",
          "type": "uint256"
        },
        {
          "internalType": "address",
          "name": "",
          "type": "address"
        }
      ],
      "name": "enrolledStudents",
      "outputs": [
        {
          "internalType": "bool",
          "name": "",
          "type": "bool"
        }
      ],
      "stateMutability": "view",
      "type": "function"
    },
    {
      "inputs": [],
      "name": "getAllCourses",
      "outputs": [
        {
          "components": [
            {
              "internalType": "uint256",
              "name": "courseId",
              "type": "uint256"
            },
            {
              "internalType": "address payable",
              "name": "owner",
              "type": "address"
            },
            {
              "internalType": "uint256",
              "name": "price",
              "type": "uint256"
            },
            {
              "internalType": "string",
              "name": "title",
              "type": "string"
            },
            {
              "internalType": "string",
              "name": "description",
              "type": "string"
            },
            {
              "internalType": "string",
              "name": "imageHash",
              "type": "string"
            },
            {
              "internalType": "string",
              "name": "pdfHash",
              "type": "string"
            },
            {
              "internalType": "string",
              "name": "certificateHash",
              "type": "string"
            }
          ],
          "internalType": "struct CertifyToken.Course[]",
          "name": "",
          "type": "tuple[]"
        }
      ],
      "stateMutability": "view",
      "type": "function"
    },
    {
      "inputs": [
        {
          "internalType": "uint256",
          "name": "tokenId",
          "type": "uint256"
        }
      ],
      "name": "getApproved",
      "outputs": [
        {
          "internalType": "address",
          "name": "",
          "type": "address"
        }
      ],
      "stateMutability": "view",
      "type": "function"
    },
    {
      "inputs": [
        {
          "internalType": "uint256",
          "name": "courseId",
          "type": "uint256"
        }
      ],
      "name": "getCourseInfo",
      "outputs": [
        {
          "components": [
            {
              "internalType": "uint256",
              "name": "courseId",
              "type": "uint256"
            },
            {
              "internalType": "address payable",
              "name": "owner",
              "type": "address"
            },
            {
              "internalType": "uint256",
              "name": "price",
              "type": "uint256"
            },
            {
              "internalType": "string",
              "name": "title",
              "type": "string"
            },
            {
              "internalType": "string",
              "name": "description",
              "type": "string"
            },
            {
              "internalType": "string",
              "name": "imageHash",
              "type": "string"
            },
            {
              "internalType": "string",
              "name": "pdfHash",
              "type": "string"
            },
            {
              "internalType": "string",
              "name": "certificateHash",
              "type": "string"
            }
          ],
          "internalType": "struct CertifyToken.Course",
          "name": "",
          "type": "tuple"
        }
      ],
      "stateMutability": "view",
      "type": "function"
    },
    {
      "inputs": [],
      "name": "getMyCourses",
      "outputs": [
        {
          "components": [
            {
              "internalType": "uint256",
              "name": "courseId",
              "type": "uint256"
            },
            {
              "internalType": "address payable",
              "name": "owner",
              "type": "address"
            },
            {
              "internalType": "uint256",
              "name": "price",
              "type": "uint256"
            },
            {
              "internalType": "string",
              "name": "title",
              "type": "string"
            },
            {
              "internalType": "string",
              "name": "description",
              "type": "string"
            },
            {
              "internalType": "string",
              "name": "imageHash",
              "type": "string"
            },
            {
              "internalType": "string",
              "name": "pdfHash",
              "type": "string"
            },
            {
              "internalType": "string",
              "name": "certificateHash",
              "type": "string"
            }
          ],
          "internalType": "struct CertifyToken.Course[]",
          "name": "",
          "type": "tuple[]"
        }
      ],
      "stateMutability": "view",
      "type": "function"
    },
    {
      "inputs": [],
      "name": "getUploadedCourses",
      "outputs": [
        {
          "components": [
            {
              "internalType": "uint256",
              "name": "courseId",
              "type": "uint256"
            },
            {
              "internalType": "address payable",
              "name": "owner",
              "type": "address"
            },
            {
              "internalType": "uint256",
              "name": "price",
              "type": "uint256"
            },
            {
              "internalType": "string",
              "name": "title",
              "type": "string"
            },
            {
              "internalType": "string",
              "name": "description",
              "type": "string"
            },
            {
              "internalType": "string",
              "name": "imageHash",
              "type": "string"
            },
            {
              "internalType": "string",
              "name": "pdfHash",
              "type": "string"
            },
            {
              "internalType": "string",
              "name": "certificateHash",
              "type": "string"
            }
          ],
          "internalType": "struct CertifyToken.Course[]",
          "name": "",
          "type": "tuple[]"
        }
      ],
      "stateMutability": "view",
      "type": "function"
    },
    {
      "inputs": [
        {
          "internalType": "address",
          "name": "owner",
          "type": "address"
        },
        {
          "internalType": "address",
          "name": "operator",
          "type": "address"
        }
      ],
      "name": "isApprovedForAll",
      "outputs": [
        {
          "internalType": "bool",
          "name": "",
          "type": "bool"
        }
      ],
      "stateMutability": "view",
      "type": "function"
    },
    {
      "inputs": [],
      "name": "name",
      "outputs": [
        {
          "internalType": "string",
          "name": "",
          "type": "string"
        }
      ],
      "stateMutability": "view",
      "type": "function"
    },
    {
      "inputs": [],
      "name": "owner",
      "outputs": [
        {
          "internalType": "address",
          "name": "",
          "type": "address"
        }
      ],
      "stateMutability": "view",
      "type": "function"
    },
    {
      "inputs": [
        {
          "internalType": "uint256",
          "name": "tokenId",
          "type": "uint256"
        }
      ],
      "name": "ownerOf",
      "outputs": [
        {
          "internalType": "address",
          "name": "",
          "type": "address"
        }
      ],
      "stateMutability": "view",
      "type": "function"
    },
    {
      "inputs": [],
      "name": "renounceOwnership",
      "outputs": [],
      "stateMutability": "nonpayable",
      "type": "function"
    },
    {
      "inputs": [
        {
          "internalType": "address",
          "name": "from",
          "type": "address"
        },
        {
          "internalType": "address",
          "name": "to",
          "type": "address"
        },
        {
          "internalType": "uint256",
          "name": "tokenId",
          "type": "uint256"
        }
      ],
      "name": "safeTransferFrom",
      "outputs": [],
      "stateMutability": "nonpayable",
      "type": "function"
    },
    {
      "inputs": [
        {
          "internalType": "address",
          "name": "from",
          "type": "address"
        },
        {
          "internalType": "address",
          "name": "to",
          "type": "address"
        },
        {
          "internalType": "uint256",
          "name": "tokenId",
          "type": "uint256"
        },
        {
          "internalType": "bytes",
          "name": "data",
          "type": "bytes"
        }
      ],
      "name": "safeTransferFrom",
      "outputs": [],
      "stateMutability": "nonpayable",
      "type": "function"
    },
    {
      "inputs": [
        {
          "internalType": "address",
          "name": "operator",
          "type": "address"
        },
        {
          "internalType": "bool",
          "name": "approved",
          "type": "bool"
        }
      ],
      "name": "setApprovalForAll",
      "outputs": [],
      "stateMutability": "nonpayable",
      "type": "function"
    },
    {
      "inputs": [
        {
          "internalType": "bytes4",
          "name": "interfaceId",
          "type": "bytes4"
        }
      ],
      "name": "supportsInterface",
      "outputs": [
        {
          "internalType": "bool",
          "name": "",
          "type": "bool"
        }
      ],
      "stateMutability": "view",
      "type": "function"
    },
    {
      "inputs": [],
      "name": "symbol",
      "outputs": [
        {
          "internalType": "string",
          "name": "",
          "type": "string"
        }
      ],
      "stateMutability": "view",
      "type": "function"
    },
    {
      "inputs": [],
      "name": "threshold",
      "outputs": [
        {
          "internalType": "uint256",
          "name": "",
          "type": "uint256"
        }
      ],
      "stateMutability": "view",
      "type": "function"
    },
    {
      "inputs": [
        {
          "internalType": "uint256",
          "name": "tokenId",
          "type": "uint256"
        }
      ],
      "name": "tokenURI",
      "outputs": [
        {
          "internalType": "string",
          "name": "",
          "type": "string"
        }
      ],
      "stateMutability": "view",
      "type": "function"
    },
    {
      "inputs": [
        {
          "internalType": "address",
          "name": "from",
          "type": "address"
        },
        {
          "internalType": "address",
          "name": "to",
          "type": "address"
        },
        {
          "internalType": "uint256",
          "name": "tokenId",
          "type": "uint256"
        }
      ],
      "name": "transferFrom",
      "outputs": [],
      "stateMutability": "nonpayable",
      "type": "function"
    },
    {
      "inputs": [
        {
          "internalType": "address",
          "name": "newOwner",
          "type": "address"
        }
      ],
      "name": "transferOwnership",
      "outputs": [],
      "stateMutability": "nonpayable",
      "type": "function"
    }
  ],
  "bytecode": "0x60806040526050600a553480156200001657600080fd5b506040518060400160405280600c81526020016b21b2b93a34b33caa37b5b2b760a11b8152506040518060400160405280600281526020016110d560f21b815250816000908162000068919062000195565b50600162000077828262000195565b505050620000946200008e6200009a60201b60201c565b6200009e565b62000261565b3390565b600780546001600160a01b038381166001600160a01b0319831681179093556040519116919082907f8be0079c531659141344cd1fd0a4f28419497f9722a3daafe3b4186f6b6457e090600090a35050565b634e487b7160e01b600052604160045260246000fd5b600181811c908216806200011b57607f821691505b6020821081036200013c57634e487b7160e01b600052602260045260246000fd5b50919050565b601f8211156200019057600081815260208120601f850160051c810160208610156200016b5750805b601f850160051c820191505b818110156200018c5782815560010162000177565b5050505b505050565b81516001600160401b03811115620001b157620001b1620000f0565b620001c981620001c2845462000106565b8462000142565b602080601f831160018114620002015760008415620001e85750858301515b600019600386901b1c1916600185901b1785556200018c565b600085815260208120601f198616915b82811015620002325788860151825594840194600190910190840162000211565b5085821015620002515787850151600019600388901b60f8161c191681555b5050505050600190811b01905550565b613f1680620002716000396000f3fe6080604052600436106101cd5760003560e01c806377e704e7116100f7578063b88d4fde11610095578063eda6c2d711610064578063eda6c2d71461054a578063f2fde38b14610585578063f9b8679b146105a5578063ffc4ed25146105e057600080fd5b8063b88d4fde146104ca578063c87b56dd146104ea578063e985e9c51461050a578063e9acc7d51461052a57600080fd5b806395d89b41116100d157806395d89b4114610448578063981059ee1461045d578063a22cb4651461048a578063ad320cca146104aa57600080fd5b806377e704e7146103f5578063782ef0a61461040a5780638da5cb5b1461042a57600080fd5b806323b872dd1161016f57806360c91d411161013e57806360c91d411461036c5780636352211e146103a057806370a08231146103c0578063715018a6146103e057600080fd5b806323b872dd146102f35780632cc590761461031357806342842e0e1461032857806342cde4e81461034857600080fd5b8063081812fc116101ab578063081812fc1461024b578063095ea7b3146102835780631318929d146102a5578063194d73a2146102e057600080fd5b806301ffc9a7146101d257806304e48bd11461020757806306fdde0314610229575b600080fd5b3480156101de57600080fd5b506101f26101ed366004613599565b61061b565b60405190151581526020015b60405180910390f35b34801561021357600080fd5b5061021c61066d565b6040516101fe91906136bc565b34801561023557600080fd5b5061023e610a52565b6040516101fe919061371e565b34801561025757600080fd5b5061026b610266366004613731565b610ae4565b6040516001600160a01b0390911681526020016101fe565b34801561028f57600080fd5b506102a361029e366004613766565b610b0b565b005b3480156102b157600080fd5b506101f26102c0366004613731565b6000908152600d6020908152604080832033845290915290205460ff1690565b6102a36102ee366004613731565b610c25565b3480156102ff57600080fd5b506102a361030e366004613790565b611067565b34801561031f57600080fd5b5061021c611098565b34801561033457600080fd5b506102a3610343366004613790565b6114ea565b34801561035457600080fd5b5061035e600a5481565b6040519081526020016101fe565b34801561037857600080fd5b5061038c610387366004613731565b611505565b6040516101fe9897969594939291906137cc565b3480156103ac57600080fd5b5061026b6103bb366004613731565b6117fa565b3480156103cc57600080fd5b5061035e6103db36600461385d565b61185a565b3480156103ec57600080fd5b506102a36118e0565b34801561040157600080fd5b5061021c6118f4565b34801561041657600080fd5b506102a3610425366004613924565b61236d565b34801561043657600080fd5b506007546001600160a01b031661026b565b34801561045457600080fd5b5061023e6124fb565b34801561046957600080fd5b5061047d610478366004613731565b61250a565b6040516101fe91906139fe565b34801561049657600080fd5b506102a36104a5366004613a11565b61283b565b3480156104b657600080fd5b506101f26104c5366004613a4d565b61284a565b3480156104d657600080fd5b506102a36104e5366004613a9d565b612926565b3480156104f657600080fd5b5061023e610505366004613731565b61295e565b34801561051657600080fd5b506101f2610525366004613b19565b612a6e565b34801561053657600080fd5b5061035e610545366004613b4c565b612a9c565b34801561055657600080fd5b506101f2610565366004613ba3565b600c60209081526000928352604080842090915290825290205460ff1681565b34801561059157600080fd5b506102a36105a036600461385d565b612b42565b3480156105b157600080fd5b506101f26105c0366004613731565b6000908152600c6020908152604080832033845290915290205460ff1690565b3480156105ec57600080fd5b506101f26105fb366004613ba3565b600d60209081526000928352604080842090915290825290205460ff1681565b60006001600160e01b031982166380ac58cd60e01b148061064c57506001600160e01b03198216635b5e139f60e01b145b8061066757506301ffc9a760e01b6001600160e01b03198316145b92915050565b6060600061067a60095490565b90506000808267ffffffffffffffff81111561069857610698613878565b6040519080825280602002602001820160405280156106d157816020015b6106be613535565b8152602001906001900390816106b65790505b50905060005b83811015610a4a57600b60006106ee836001613bdc565b815260208082019290925260409081016000208151610100810183528154815260018201546001600160a01b03169381019390935260028101549183019190915260038101805460608401919061074490613bef565b80601f016020809104026020016040519081016040528092919081815260200182805461077090613bef565b80156107bd5780601f10610792576101008083540402835291602001916107bd565b820191906000526020600020905b8154815290600101906020018083116107a057829003601f168201915b505050505081526020016004820180546107d690613bef565b80601f016020809104026020016040519081016040528092919081815260200182805461080290613bef565b801561084f5780601f106108245761010080835404028352916020019161084f565b820191906000526020600020905b81548152906001019060200180831161083257829003601f168201915b5050505050815260200160058201805461086890613bef565b80601f016020809104026020016040519081016040528092919081815260200182805461089490613bef565b80156108e15780601f106108b6576101008083540402835291602001916108e1565b820191906000526020600020905b8154815290600101906020018083116108c457829003601f168201915b505050505081526020016006820180546108fa90613bef565b80601f016020809104026020016040519081016040528092919081815260200182805461092690613bef565b80156109735780601f1061094857610100808354040283529160200191610973565b820191906000526020600020905b81548152906001019060200180831161095657829003601f168201915b5050505050815260200160078201805461098c90613bef565b80601f01602080910402602001604051908101604052809291908181526020018280546109b890613bef565b8015610a055780601f106109da57610100808354040283529160200191610a05565b820191906000526020600020905b8154815290600101906020018083116109e857829003601f168201915b505050505081525050828481518110610a2057610a20613c29565b6020908102919091010152610a36600184613bdc565b925080610a4281613c3f565b9150506106d7565b509392505050565b606060008054610a6190613bef565b80601f0160208091040260200160405190810160405280929190818152602001828054610a8d90613bef565b8015610ada5780601f10610aaf57610100808354040283529160200191610ada565b820191906000526020600020905b815481529060010190602001808311610abd57829003601f168201915b5050505050905090565b6000610aef82612bbb565b506000908152600460205260409020546001600160a01b031690565b6000610b16826117fa565b9050806001600160a01b0316836001600160a01b031603610b885760405162461bcd60e51b815260206004820152602160248201527f4552433732313a20617070726f76616c20746f2063757272656e74206f776e656044820152603960f91b60648201526084015b60405180910390fd5b336001600160a01b0382161480610ba45750610ba48133612a6e565b610c165760405162461bcd60e51b815260206004820152603e60248201527f4552433732313a20617070726f76652063616c6c6572206973206e6f7420746f60448201527f6b656e206f776e6572206e6f7220617070726f76656420666f7220616c6c00006064820152608401610b7f565b610c208383612c1a565b505050565b6000818152600c6020908152604080832033845290915290205460ff161515600103610c845760405162461bcd60e51b815260206004820152600e60248201526d105b1c9958591e48109bdd59da1d60921b6044820152606401610b7f565b6000818152600b602090815260408083208151610100810183528154815260018201546001600160a01b031693810193909352600281015491830191909152600381018054606084019190610cd890613bef565b80601f0160208091040260200160405190810160405280929190818152602001828054610d0490613bef565b8015610d515780601f10610d2657610100808354040283529160200191610d51565b820191906000526020600020905b815481529060010190602001808311610d3457829003601f168201915b50505050508152602001600482018054610d6a90613bef565b80601f0160208091040260200160405190810160405280929190818152602001828054610d9690613bef565b8015610de35780601f10610db857610100808354040283529160200191610de3565b820191906000526020600020905b815481529060010190602001808311610dc657829003601f168201915b50505050508152602001600582018054610dfc90613bef565b80601f0160208091040260200160405190810160405280929190818152602001828054610e2890613bef565b8015610e755780601f10610e4a57610100808354040283529160200191610e75565b820191906000526020600020905b815481529060010190602001808311610e5857829003601f168201915b50505050508152602001600682018054610e8e90613bef565b80601f0160208091040260200160405190810160405280929190818152602001828054610eba90613bef565b8015610f075780601f10610edc57610100808354040283529160200191610f07565b820191906000526020600020905b815481529060010190602001808311610eea57829003601f168201915b50505050508152602001600782018054610f2090613bef565b80601f0160208091040260200160405190810160405280929190818152602001828054610f4c90613bef565b8015610f995780601f10610f6e57610100808354040283529160200191610f99565b820191906000526020600020905b815481529060010190602001808311610f7c57829003601f168201915b5050505050815250509050336001600160a01b031681602001516001600160a01b031603610ffe5760405162461bcd60e51b8152602060048201526012602482015271596f752061726520746865206f776e65722160701b6044820152606401610b7f565b80602001516001600160a01b03166108fc82604001519081150290604051600060405180830381858888f1935050505015801561103f573d6000803e3d6000fd5b50506000908152600c602090815260408083203384529091529020805460ff19166001179055565b6110713382612c88565b61108d5760405162461bcd60e51b8152600401610b7f90613c58565b610c20838383612ce6565b606060006110a560095490565b905060008060015b8381116110fa576000818152600c6020908152604080832033845290915290205460ff1615156001036110e8576110e5600184613bdc565b92505b806110f281613c3f565b9150506110ad565b5060008267ffffffffffffffff81111561111657611116613878565b60405190808252806020026020018201604052801561114f57816020015b61113c613535565b8152602001906001900390816111345790505b50905060015b8481116114e1576000818152600c6020908152604080832033845290915290205460ff1615156001036114cf576000818152600b60209081526040918290208251610100810184528154815260018201546001600160a01b0316928101929092526002810154928201929092526003820180549192916060840191906111da90613bef565b80601f016020809104026020016040519081016040528092919081815260200182805461120690613bef565b80156112535780601f1061122857610100808354040283529160200191611253565b820191906000526020600020905b81548152906001019060200180831161123657829003601f168201915b5050505050815260200160048201805461126c90613bef565b80601f016020809104026020016040519081016040528092919081815260200182805461129890613bef565b80156112e55780601f106112ba576101008083540402835291602001916112e5565b820191906000526020600020905b8154815290600101906020018083116112c857829003601f168201915b505050505081526020016005820180546112fe90613bef565b80601f016020809104026020016040519081016040528092919081815260200182805461132a90613bef565b80156113775780601f1061134c57610100808354040283529160200191611377565b820191906000526020600020905b81548152906001019060200180831161135a57829003601f168201915b5050505050815260200160068201805461139090613bef565b80601f01602080910402602001604051908101604052809291908181526020018280546113bc90613bef565b80156114095780601f106113de57610100808354040283529160200191611409565b820191906000526020600020905b8154815290600101906020018083116113ec57829003601f168201915b5050505050815260200160078201805461142290613bef565b80601f016020809104026020016040519081016040528092919081815260200182805461144e90613bef565b801561149b5780601f106114705761010080835404028352916020019161149b565b820191906000526020600020905b81548152906001019060200180831161147e57829003601f168201915b5050505050815250508284815181106114b6576114b6613c29565b60209081029190910101526114cc600184613bdc565b92505b806114d981613c3f565b915050611155565b50949350505050565b610c2083838360405180602001604052806000815250612926565b600b60205260009081526040902080546001820154600283015460038401805493946001600160a01b039093169391929161153f90613bef565b80601f016020809104026020016040519081016040528092919081815260200182805461156b90613bef565b80156115b85780601f1061158d576101008083540402835291602001916115b8565b820191906000526020600020905b81548152906001019060200180831161159b57829003601f168201915b5050505050908060040180546115cd90613bef565b80601f01602080910402602001604051908101604052809291908181526020018280546115f990613bef565b80156116465780601f1061161b57610100808354040283529160200191611646565b820191906000526020600020905b81548152906001019060200180831161162957829003601f168201915b50505050509080600501805461165b90613bef565b80601f016020809104026020016040519081016040528092919081815260200182805461168790613bef565b80156116d45780601f106116a9576101008083540402835291602001916116d4565b820191906000526020600020905b8154815290600101906020018083116116b757829003601f168201915b5050505050908060060180546116e990613bef565b80601f016020809104026020016040519081016040528092919081815260200182805461171590613bef565b80156117625780601f1061173757610100808354040283529160200191611762565b820191906000526020600020905b81548152906001019060200180831161174557829003601f168201915b50505050509080600701805461177790613bef565b80601f01602080910402602001604051908101604052809291908181526020018280546117a390613bef565b80156117f05780601f106117c5576101008083540402835291602001916117f0565b820191906000526020600020905b8154815290600101906020018083116117d357829003601f168201915b5050505050905088565b6000818152600260205260408120546001600160a01b0316806106675760405162461bcd60e51b8152602060048201526018602482015277115490cdcc8c4e881a5b9d985b1a59081d1bdad95b88125160421b6044820152606401610b7f565b60006001600160a01b0382166118c45760405162461bcd60e51b815260206004820152602960248201527f4552433732313a2061646472657373207a65726f206973206e6f7420612076616044820152683634b21037bbb732b960b91b6064820152608401610b7f565b506001600160a01b031660009081526003602052604090205490565b6118e8612e8d565b6118f26000612ee7565b565b6060600061190160095490565b905060008060015b838111611c6e576000818152600b602090815260408083208151610100810183528154815260018201546001600160a01b03169381019390935260028101549183019190915260038101805460608401919061196490613bef565b80601f016020809104026020016040519081016040528092919081815260200182805461199090613bef565b80156119dd5780601f106119b2576101008083540402835291602001916119dd565b820191906000526020600020905b8154815290600101906020018083116119c057829003601f168201915b505050505081526020016004820180546119f690613bef565b80601f0160208091040260200160405190810160405280929190818152602001828054611a2290613bef565b8015611a6f5780601f10611a4457610100808354040283529160200191611a6f565b820191906000526020600020905b815481529060010190602001808311611a5257829003601f168201915b50505050508152602001600582018054611a8890613bef565b80601f0160208091040260200160405190810160405280929190818152602001828054611ab490613bef565b8015611b015780601f10611ad657610100808354040283529160200191611b01565b820191906000526020600020905b815481529060010190602001808311611ae457829003601f168201915b50505050508152602001600682018054611b1a90613bef565b80601f0160208091040260200160405190810160405280929190818152602001828054611b4690613bef565b8015611b935780601f10611b6857610100808354040283529160200191611b93565b820191906000526020600020905b815481529060010190602001808311611b7657829003601f168201915b50505050508152602001600782018054611bac90613bef565b80601f0160208091040260200160405190810160405280929190818152602001828054611bd890613bef565b8015611c255780601f10611bfa57610100808354040283529160200191611c25565b820191906000526020600020905b815481529060010190602001808311611c0857829003601f168201915b5050505050815250509050336001600160a01b031681602001516001600160a01b031603611c5b57611c58600185613bdc565b93505b5080611c6681613c3f565b915050611909565b5060008267ffffffffffffffff811115611c8a57611c8a613878565b604051908082528060200260200182016040528015611cc357816020015b611cb0613535565b815260200190600190039081611ca85790505b50905060015b8481116114e1576000818152600b602090815260408083208151610100810183528154815260018201546001600160a01b031693810193909352600281015491830191909152600381018054606084019190611d2490613bef565b80601f0160208091040260200160405190810160405280929190818152602001828054611d5090613bef565b8015611d9d5780601f10611d7257610100808354040283529160200191611d9d565b820191906000526020600020905b815481529060010190602001808311611d8057829003601f168201915b50505050508152602001600482018054611db690613bef565b80601f0160208091040260200160405190810160405280929190818152602001828054611de290613bef565b8015611e2f5780601f10611e0457610100808354040283529160200191611e2f565b820191906000526020600020905b815481529060010190602001808311611e1257829003601f168201915b50505050508152602001600582018054611e4890613bef565b80601f0160208091040260200160405190810160405280929190818152602001828054611e7490613bef565b8015611ec15780601f10611e9657610100808354040283529160200191611ec1565b820191906000526020600020905b815481529060010190602001808311611ea457829003601f168201915b50505050508152602001600682018054611eda90613bef565b80601f0160208091040260200160405190810160405280929190818152602001828054611f0690613bef565b8015611f535780601f10611f2857610100808354040283529160200191611f53565b820191906000526020600020905b815481529060010190602001808311611f3657829003601f168201915b50505050508152602001600782018054611f6c90613bef565b80601f0160208091040260200160405190810160405280929190818152602001828054611f9890613bef565b8015611fe55780601f10611fba57610100808354040283529160200191611fe5565b820191906000526020600020905b815481529060010190602001808311611fc857829003601f168201915b5050505050815250509050336001600160a01b031681602001516001600160a01b03160361235a576000828152600b60209081526040918290208251610100810184528154815260018201546001600160a01b03169281019290925260028101549282019290925260038201805491929160608401919061206590613bef565b80601f016020809104026020016040519081016040528092919081815260200182805461209190613bef565b80156120de5780601f106120b3576101008083540402835291602001916120de565b820191906000526020600020905b8154815290600101906020018083116120c157829003601f168201915b505050505081526020016004820180546120f790613bef565b80601f016020809104026020016040519081016040528092919081815260200182805461212390613bef565b80156121705780601f1061214557610100808354040283529160200191612170565b820191906000526020600020905b81548152906001019060200180831161215357829003601f168201915b5050505050815260200160058201805461218990613bef565b80601f01602080910402602001604051908101604052809291908181526020018280546121b590613bef565b80156122025780601f106121d757610100808354040283529160200191612202565b820191906000526020600020905b8154815290600101906020018083116121e557829003601f168201915b5050505050815260200160068201805461221b90613bef565b80601f016020809104026020016040519081016040528092919081815260200182805461224790613bef565b80156122945780601f1061226957610100808354040283529160200191612294565b820191906000526020600020905b81548152906001019060200180831161227757829003601f168201915b505050505081526020016007820180546122ad90613bef565b80601f01602080910402602001604051908101604052809291908181526020018280546122d990613bef565b80156123265780601f106122fb57610100808354040283529160200191612326565b820191906000526020600020905b81548152906001019060200180831161230957829003601f168201915b50505050508152505083858151811061234157612341613c29565b6020908102919091010152612357600185613bdc565b93505b508061236581613c3f565b915050611cc9565b856000036123ad5760405162461bcd60e51b815260206004820152600d60248201526c496e76616c696420707269636560981b6044820152606401610b7f565b60008551116123ee5760405162461bcd60e51b815260206004820152600d60248201526c496e76616c6964207469746c6560981b6044820152606401610b7f565b6123fc600980546001019055565b600061240760095490565b60408051610100810182528281523360208083019182528284018c8152606084018c8152608085018c905260a085018b905260c085018a905260e085018990526000878152600b909352949091208351815591516001830180546001600160a01b0319166001600160a01b03909216919091179055516002820155915192935091829190600382019061249a9082613cf4565b50608082015160048201906124af9082613cf4565b5060a082015160058201906124c49082613cf4565b5060c082015160068201906124d99082613cf4565b5060e082015160078201906124ee9082613cf4565b5050505050505050505050565b606060018054610a6190613bef565b612512613535565b6000828152600b60209081526040918290208251610100810184528154815260018201546001600160a01b03169281019290925260028101549282019290925260038201805491929160608401919061256a90613bef565b80601f016020809104026020016040519081016040528092919081815260200182805461259690613bef565b80156125e35780601f106125b8576101008083540402835291602001916125e3565b820191906000526020600020905b8154815290600101906020018083116125c657829003601f168201915b505050505081526020016004820180546125fc90613bef565b80601f016020809104026020016040519081016040528092919081815260200182805461262890613bef565b80156126755780601f1061264a57610100808354040283529160200191612675565b820191906000526020600020905b81548152906001019060200180831161265857829003601f168201915b5050505050815260200160058201805461268e90613bef565b80601f01602080910402602001604051908101604052809291908181526020018280546126ba90613bef565b80156127075780601f106126dc57610100808354040283529160200191612707565b820191906000526020600020905b8154815290600101906020018083116126ea57829003601f168201915b5050505050815260200160068201805461272090613bef565b80601f016020809104026020016040519081016040528092919081815260200182805461274c90613bef565b80156127995780601f1061276e57610100808354040283529160200191612799565b820191906000526020600020905b81548152906001019060200180831161277c57829003601f168201915b505050505081526020016007820180546127b290613bef565b80601f01602080910402602001604051908101604052809291908181526020018280546127de90613bef565b801561282b5780601f106128005761010080835404028352916020019161282b565b820191906000526020600020905b81548152906001019060200180831161280e57829003601f168201915b5050505050815250509050919050565b612846338383612f39565b5050565b6000600a5483101561288c5760405162461bcd60e51b815260206004820152600b60248201526a145d5a5e8811985a5b195960aa1b6044820152606401610b7f565b6000848152600d6020908152604080832033845290915290205460ff1615156001036128ee5760405162461bcd60e51b8152602060048201526011602482015270105b1c9958591e4818dbdb5c1b195d1959607a1b6044820152606401610b7f565b6128f9848333612a9c565b506000938452600d60209081526040808620338752909152909320805460ff191660011790555090919050565b6129303383612c88565b61294c5760405162461bcd60e51b8152600401610b7f90613c58565b61295884848484613007565b50505050565b606061296982612bbb565b6000828152600660205260408120805461298290613bef565b80601f01602080910402602001604051908101604052809291908181526020018280546129ae90613bef565b80156129fb5780601f106129d0576101008083540402835291602001916129fb565b820191906000526020600020905b8154815290600101906020018083116129de57829003601f168201915b505050505090506000612a1960408051602081019091526000815290565b90508051600003612a2b575092915050565b815115612a5d578082604051602001612a45929190613db4565b60405160208183030381529060405292505050919050565b612a668461303a565b949350505050565b6001600160a01b03918216600090815260056020908152604080832093909416825291909152205460ff1690565b6000838152600d602090815260408083206001600160a01b038516845290915281205460ff161515600103612b135760405162461bcd60e51b815260206004820152601c60248201527f436572746966696361746520616c7265616479206163717569726564000000006044820152606401610b7f565b612b21600880546001019055565b6000612b2c60085490565b9050612b3883826130ae565b612a6681856130c8565b612b4a612e8d565b6001600160a01b038116612baf5760405162461bcd60e51b815260206004820152602660248201527f4f776e61626c653a206e6577206f776e657220697320746865207a65726f206160448201526564647265737360d01b6064820152608401610b7f565b612bb881612ee7565b50565b6000818152600260205260409020546001600160a01b0316612bb85760405162461bcd60e51b8152602060048201526018602482015277115490cdcc8c4e881a5b9d985b1a59081d1bdad95b88125160421b6044820152606401610b7f565b600081815260046020526040902080546001600160a01b0319166001600160a01b0384169081179091558190612c4f826117fa565b6001600160a01b03167f8c5be1e5ebec7d5bd14f71427d1e84f3dd0314c0f7b2291e5b200ac8c7c3b92560405160405180910390a45050565b600080612c94836117fa565b9050806001600160a01b0316846001600160a01b03161480612cbb5750612cbb8185612a6e565b80612a665750836001600160a01b0316612cd484610ae4565b6001600160a01b031614949350505050565b826001600160a01b0316612cf9826117fa565b6001600160a01b031614612d5d5760405162461bcd60e51b815260206004820152602560248201527f4552433732313a207472616e736665722066726f6d20696e636f72726563742060448201526437bbb732b960d91b6064820152608401610b7f565b6001600160a01b038216612dbf5760405162461bcd60e51b8152602060048201526024808201527f4552433732313a207472616e7366657220746f20746865207a65726f206164646044820152637265737360e01b6064820152608401610b7f565b612dca83838361315b565b612dd5600082612c1a565b6001600160a01b0383166000908152600360205260408120805460019290612dfe908490613de3565b90915550506001600160a01b0382166000908152600360205260408120805460019290612e2c908490613bdc565b909155505060008181526002602052604080822080546001600160a01b0319166001600160a01b0386811691821790925591518493918716917fddf252ad1be2c89b69c2b068fc378daa952ba7f163c4a11628f55a4df523b3ef91a4505050565b6007546001600160a01b031633146118f25760405162461bcd60e51b815260206004820181905260248201527f4f776e61626c653a2063616c6c6572206973206e6f7420746865206f776e65726044820152606401610b7f565b600780546001600160a01b038381166001600160a01b0319831681179093556040519116919082907f8be0079c531659141344cd1fd0a4f28419497f9722a3daafe3b4186f6b6457e090600090a35050565b816001600160a01b0316836001600160a01b031603612f9a5760405162461bcd60e51b815260206004820152601960248201527f4552433732313a20617070726f766520746f2063616c6c6572000000000000006044820152606401610b7f565b6001600160a01b03838116600081815260056020908152604080832094871680845294825291829020805460ff191686151590811790915591519182527f17307eab39ab6107e8899845ad3d59bd9653f200f220920489ca2b5937696c31910160405180910390a3505050565b613012848484612ce6565b61301e848484846131b2565b6129585760405162461bcd60e51b8152600401610b7f90613df6565b606061304582612bbb565b600061305c60408051602081019091526000815290565b9050600081511161307c57604051806020016040528060008152506130a7565b80613086846132b3565b604051602001613097929190613db4565b6040516020818303038152906040525b9392505050565b6128468282604051806020016040528060008152506133b4565b6000828152600260205260409020546001600160a01b03166131435760405162461bcd60e51b815260206004820152602e60248201527f45524337323155524953746f726167653a2055524920736574206f66206e6f6e60448201526d32bc34b9ba32b73a103a37b5b2b760911b6064820152608401610b7f565b6000828152600660205260409020610c208282613cf4565b6001600160a01b03831615610c205760405162461bcd60e51b815260206004820152601e60248201527f4572723a20746f6b656e207472616e7366657220697320424c4f434b454400006044820152606401610b7f565b60006001600160a01b0384163b156132a857604051630a85bd0160e11b81526001600160a01b0385169063150b7a02906131f6903390899088908890600401613e48565b6020604051808303816000875af1925050508015613231575060408051601f3d908101601f1916820190925261322e91810190613e85565b60015b61328e573d80801561325f576040519150601f19603f3d011682016040523d82523d6000602084013e613264565b606091505b5080516000036132865760405162461bcd60e51b8152600401610b7f90613df6565b805181602001fd5b6001600160e01b031916630a85bd0160e11b149050612a66565b506001949350505050565b6060816000036132da5750506040805180820190915260018152600360fc1b602082015290565b8160005b811561330457806132ee81613c3f565b91506132fd9050600a83613eb8565b91506132de565b60008167ffffffffffffffff81111561331f5761331f613878565b6040519080825280601f01601f191660200182016040528015613349576020820181803683370190505b5090505b8415612a665761335e600183613de3565b915061336b600a86613ecc565b613376906030613bdc565b60f81b81838151811061338b5761338b613c29565b60200101906001600160f81b031916908160001a9053506133ad600a86613eb8565b945061334d565b6133be83836133e7565b6133cb60008484846131b2565b610c205760405162461bcd60e51b8152600401610b7f90613df6565b6001600160a01b03821661343d5760405162461bcd60e51b815260206004820181905260248201527f4552433732313a206d696e7420746f20746865207a65726f20616464726573736044820152606401610b7f565b6000818152600260205260409020546001600160a01b0316156134a25760405162461bcd60e51b815260206004820152601c60248201527f4552433732313a20746f6b656e20616c7265616479206d696e746564000000006044820152606401610b7f565b6134ae6000838361315b565b6001600160a01b03821660009081526003602052604081208054600192906134d7908490613bdc565b909155505060008181526002602052604080822080546001600160a01b0319166001600160a01b03861690811790915590518392907fddf252ad1be2c89b69c2b068fc378daa952ba7f163c4a11628f55a4df523b3ef908290a45050565b6040518061010001604052806000815260200160006001600160a01b031681526020016000815260200160608152602001606081526020016060815260200160608152602001606081525090565b6001600160e01b031981168114612bb857600080fd5b6000602082840312156135ab57600080fd5b81356130a781613583565b60005b838110156135d15781810151838201526020016135b9565b50506000910152565b600081518084526135f28160208601602086016135b6565b601f01601f19169290920160200192915050565b600061010082518452602083015161362960208601826001600160a01b03169052565b5060408301516040850152606083015181606086015261364b828601826135da565b9150506080830151848203608086015261366582826135da565b91505060a083015184820360a086015261367f82826135da565b91505060c083015184820360c086015261369982826135da565b91505060e083015184820360e08601526136b382826135da565b95945050505050565b6000602080830181845280855180835260408601915060408160051b870101925083870160005b8281101561371157603f198886030184526136ff858351613606565b945092850192908501906001016136e3565b5092979650505050505050565b6020815260006130a760208301846135da565b60006020828403121561374357600080fd5b5035919050565b80356001600160a01b038116811461376157600080fd5b919050565b6000806040838503121561377957600080fd5b6137828361374a565b946020939093013593505050565b6000806000606084860312156137a557600080fd5b6137ae8461374a565b92506137bc6020850161374a565b9150604084013590509250925092565b8881526001600160a01b038816602082015260408101879052610100606082018190526000906137fe838201896135da565b9050828103608084015261381281886135da565b905082810360a084015261382681876135da565b905082810360c084015261383a81866135da565b905082810360e084015261384e81856135da565b9b9a5050505050505050505050565b60006020828403121561386f57600080fd5b6130a78261374a565b634e487b7160e01b600052604160045260246000fd5b600067ffffffffffffffff808411156138a9576138a9613878565b604051601f8501601f19908116603f011681019082821181831017156138d1576138d1613878565b816040528093508581528686860111156138ea57600080fd5b858560208301376000602087830101525050509392505050565b600082601f83011261391557600080fd5b6130a78383356020850161388e565b60008060008060008060c0878903121561393d57600080fd5b86359550602087013567ffffffffffffffff8082111561395c57600080fd5b6139688a838b01613904565b9650604089013591508082111561397e57600080fd5b61398a8a838b01613904565b955060608901359150808211156139a057600080fd5b6139ac8a838b01613904565b945060808901359150808211156139c257600080fd5b6139ce8a838b01613904565b935060a08901359150808211156139e457600080fd5b506139f189828a01613904565b9150509295509295509295565b6020815260006130a76020830184613606565b60008060408385031215613a2457600080fd5b613a2d8361374a565b915060208301358015158114613a4257600080fd5b809150509250929050565b600080600060608486031215613a6257600080fd5b8335925060208401359150604084013567ffffffffffffffff811115613a8757600080fd5b613a9386828701613904565b9150509250925092565b60008060008060808587031215613ab357600080fd5b613abc8561374a565b9350613aca6020860161374a565b925060408501359150606085013567ffffffffffffffff811115613aed57600080fd5b8501601f81018713613afe57600080fd5b613b0d8782356020840161388e565b91505092959194509250565b60008060408385031215613b2c57600080fd5b613b358361374a565b9150613b436020840161374a565b90509250929050565b600080600060608486031215613b6157600080fd5b83359250602084013567ffffffffffffffff811115613b7f57600080fd5b613b8b86828701613904565b925050613b9a6040850161374a565b90509250925092565b60008060408385031215613bb657600080fd5b82359150613b436020840161374a565b634e487b7160e01b600052601160045260246000fd5b8082018082111561066757610667613bc6565b600181811c90821680613c0357607f821691505b602082108103613c2357634e487b7160e01b600052602260045260246000fd5b50919050565b634e487b7160e01b600052603260045260246000fd5b600060018201613c5157613c51613bc6565b5060010190565b6020808252602e908201527f4552433732313a2063616c6c6572206973206e6f7420746f6b656e206f776e6560408201526d1c881b9bdc88185c1c1c9bdd995960921b606082015260800190565b601f821115610c2057600081815260208120601f850160051c81016020861015613ccd5750805b601f850160051c820191505b81811015613cec57828155600101613cd9565b505050505050565b815167ffffffffffffffff811115613d0e57613d0e613878565b613d2281613d1c8454613bef565b84613ca6565b602080601f831160018114613d575760008415613d3f5750858301515b600019600386901b1c1916600185901b178555613cec565b600085815260208120601f198616915b82811015613d8657888601518255948401946001909101908401613d67565b5085821015613da45787850151600019600388901b60f8161c191681555b5050505050600190811b01905550565b60008351613dc68184602088016135b6565b835190830190613dda8183602088016135b6565b01949350505050565b8181038181111561066757610667613bc6565b60208082526032908201527f4552433732313a207472616e7366657220746f206e6f6e20455243373231526560408201527131b2b4bb32b91034b6b83632b6b2b73a32b960711b606082015260800190565b6001600160a01b0385811682528416602082015260408101839052608060608201819052600090613e7b908301846135da565b9695505050505050565b600060208284031215613e9757600080fd5b81516130a781613583565b634e487b7160e01b600052601260045260246000fd5b600082613ec757613ec7613ea2565b500490565b600082613edb57613edb613ea2565b50069056fea264697066735822122011d385aad1637956a6c3814683f42885ae88e737bb0a392b6d326008ffae002e64736f6c63430008110033",
  "linkReferences": {},
  "deployedLinkReferences": {}
}